:10088C001A0900F0000F00F0000F00F0000F00AA92
:10089C00005500AA005500AA005500FF2040230077
:1008AC00FE00FD00FB00F700EF00DF00BF007F0043
:1008BC00BF00DF00EF00F700FB00FD00FE00FF00B3
:1008CC00FE00FD00FB00F700EF00DF00BF007F0023
:0F08DC00BF00DF00EF00F700FB00FD00FE00FF94
:10095600E4FFFEE4FDFC0DBD00010CE4B505F7EC7B
:0E096600B401F30FBF00010EBE03E8BFE8E5C9
:010974002260
:030003000208EC04
:1008EC00C0E0C0D075D000C000C004C005C006C0B8
:0808FC00070508E508B4011D21
:10090400756300E56325E02423F808E6F580120901
:0D091400560563E563C3940D40E9750800C6
:0F092100D007D006D005D004D000D0D0D0E0321F
:03001300020930AF
:10093000C0E0C0D075D000C004C005C006C007C26A
:1009400090120956D290120956D007D006D005D081
:0609500004D0D0D0E0321B
:0B09750075A88575B804E4F588F50846
:10098000E4F5646380FF1209560564E564C39417B7
:0409900040F180ECC6
:03000000020800F3
:0C080000787FE4F6D8FD7581640208479B
:10080C00020975E493A3F8E493A34003F68001F284
:10081C0008DFF48029E493A3F85407240CC8C333ED
:10082C00C4540F4420C8834004F456800146F6DFBC
:10083C00E4800B010204081020408090088CE47EB8
:10084C00019360BCA3FF543F30E509541FFEE493B1
:10085C00A360010ECF54C025E060A840B8E493A378
:10086C00FAE493A3F8E493A3C8C582C8CAC583CAA3
:10087C00F0A3C8C582C8CAC583CADFE9DEE780BE5B
:0108EB00000C
:00000001FF
